:020000040800F2
:1000000038080020497D0008210500082305000864
:10001000270500082B0500082F0500080000000038
:100020000000000000000000000000003305000890
:1000300035050008000000003705000839050008F4
:10004000637D0008637D0008637D0008637D000810
:10005000637D0008637D00081B7200083F72000882
:1000600027730008637D0008637D0008637D000836
:10007000637D0008637D0008637D0008637D0008E0
:10008000637D0008637D0008637D0008637D0008D0
:10009000637D0008637D0008637D0008637D0008C0
:1000A000637D0008C5780008637D0008637D000853
:1000B0001312000833150008CD1E0008637D0008E8
:1000C000637D0008637D0008637D0008637D000890
:1000D000637D0008BD7C0008637D0008637D000827
:1000E000637D0008637D0008637D0008637D000870
:1000F000BB740008637D0008637D0008637D000811
:10010000637D0008637D0008CB180008637D00084C
:10011000637D0008637D0008637D0008637D00083F
:10012000637D0008637D0008637D0008637D00082F
:1001300000F002F800F045F80AA090E8000C8244B4
:100140008344AAF10107DA4501D100F03AF8AFF291
:10015000090EBAE80F0013F0010F18BFFB1A43F0A5
:10016000010318478CC50000ACC50000103A24BF3D
:1001700078C878C1FAD8520724BF30C830C144BF0C
:1001800004680C607047000000230024002500264E
:10019000103A28BF78C1FBD8520728BF30C148BFEA
:1001A0000B60704764290AF07B8078290AF0B480DC
:1001B00073290AF03882002070471FB51FBD10B5A3
:1001C00010BD0AF053FA1146FFF7F7FF00F05DF893
:1001D0000AF071FA03B4FFF7F2FF03BC07F014FD55
:1001E00010B592B0A7A207CA07AB07C3A8A207CA57
:1001F00004AB07C303A9522000F0A2FC0446262842
:1002000004D003A9522000F09BFC0446262C3AD1CE
:1002100003A800F0C0FC262835D19DF80F009DF8FA
:100220000E10CDE900109DF80D309DF80C209BA11B
:100230000AA809F0D1FF0AA9A1A009F0C1FF002076
:10024000A14908600BE003A89F4A1268815C9FA047
:1002500009F0B6FF9C480068401C9B4908609A481A
:1002600000680428EFDB9DF80F000D2803D1022160
:10027000984808F00CFA9DF80F00D92803D1042102
:10028000944808F004FA12B010BD1CB507F052FCF7
:100290004FF4A06007F078FD4FF4E13007F0C2FCA6
:1002A00006F084FE06F0ACFE00F08DFA06F02AFFA0
:1002B00089A009F085FF00F042FB88A009F080FFCB
:1002C000412000F07AFB00F09EFE01F0FAF901F007
:1002D000F9FC06F007FD06F00DFE41F61F4147F25E
:1002E0002F5001F0F9F810217D4808F0D0F90421D1
:1002F0007B4808F0CCF90821794808F0C8F902F0E9
:10030000EEFD4FF4784077490880BAE0FFF768FFC8
:10031000754806F0D5FD40287ED173480078302816
:100320001DD12021714806F063FE71A009F048FF3D
:1003300000206D49087071A00C210B46D222CDE936
:10034000001028211E2006F01CFC72A018210B466C
:10035000D222CDE9001050213C2006F012FC624868
:10036000007831281DD12021604806F041FE60A0B0
:1003700009F026FF00205C49087060A00C210B46A4
:10038000D222CDE9001028211E2006F0FAFB62A03F
:1003900018210B46D222CDE9001050213C2006F056
:1003A000F0FB5148007832281DD120214F4806F03B
:1003B0001FFE4FA009F004FF00204B4908704FA01A
:1003C0000C210B46D222CDE9001028211E2006F078
:1003D000D8FB42A018210B46D222CDE900105021B3
:1003E0003C2006F0CEFB4048007833281FD1202166
:1003F0003E4806F0FDFD3EA009F0E2FE00203A492D
:1004000008703EA00C210B46D222CDE90010282115
:100410001E2006F0B6FB00E02BE02FA018210B46B3
:10042000D222CDE9001050213C2006F0AAFB2E4834
:10043000007834281DD120212C4806F0D9FD2CA0AD
:1004400009F0BEFE0020284908702CA00C210B46A4
:10045000D222CDE9001028211E2006F092FB2FA009
:1004600018210B46D222CDE9001050213C2006F085
:1004700088FB2021174806F0BBFD4FF4FA7007F007
:1004800096FB43E7443438393939304400000000E2
:100490004537304644434439000000005468652025
:1004A000436172642049442069733A2025303258F0
:1004B000253032582530325825303258000000009F
:1004C00025730D0A000000000000002025640D0ABD
:1004D0000000000000180140310000003200000060
:1004E000001001405800002094000020000C014042
:1004F00073686F7564616F0D0A000000526573695F
:100500006475616C207061726B696E6720737061D5
:10051000636500003400000033000000300000007C
:10052000704700BFFEE700BFFEE700BFFEE700BF69
:10053000FEE7704770477047704700000CB5002019
:10054000019000906C48006840F480306A4908606F
:1005500000BF6948006800F4003000900198401C1A
:100560000190009818B90198B0F5A06FF1D16248D8
:10057000006800F4003010B10120009001E000207C
:1005800000900098012843D15C48006840F01000BA
:100590005A4908600846006820F0030008600846D1
:1005A000006840F0020008605348406852494860C3
:1005B0000846406848600846406840F480604860EB
:1005C0000846406820F47C1048600846406840F4C3
:1005D000E81048600846006840F08070086000BF7E
:1005E0004548006800F000700028F9D04248406893
:1005F00020F00300404948600846406840F002008F
:10060000486000BF3C48406800F00C000828F9D161
:100610000CBD10B5FFF792FF10BD10B5364800684D
:1006200040F00100344908600846406834490840F9
:100630003149486008460068324908402E49086040
:100640000846006820F4802008600846406820F4CE
:10065000FE0048604FF41F008860FFF7DAFF4FF09C
:1006600000602949086010BD10B50021002000225B
:10067000214B5B6803F00C0121B1042906D0082945
:1006800028D107E0214B224C236027E01F4B204C50
:10069000236023E0184B5B6803F47010164B5B6813
:1006A00003F48032022303EB904022B9194B4343F9
:1006B000174C23600DE0104B5B6803F4003323B14B
:1006C000144B4343124C236003E0104B4343104C44
:1006D000236003E00D4B0E4C236000BF00BF064BB0
:1006E0005B68C3F303130C4CE15C094B1B68CB4004
:1006F000074C236010BD00000010024000200240A3
:100700000000FFF8FFFFF6FE08ED00E000127A009F
:100710000800002000093D000C00002008B5012160
:10072000082008F0C1F94FF48050ADF80000032014
:100730008DF8020010208DF803006946284807F064
:10074000F7FE0121042008F0AFF92020ADF80000E9
:1007500003208DF8020010208DF80300694621481F
:1007600007F0E6FE0121042008F09EF98020ADF894
:10077000000003208DF8020010208DF80300694668
:10078000184807F0D5FE0121042008F08DF940201B
:10079000ADF8000004208DF803006946114807F009
:1007A000C7FE0121102008F07FF90220ADF80000FB
:1007B00003208DF8020010208DF8030069460A48D6
:1007C00007F0B6FE08BD10B5FFF7A8FF02210648E6
:1007D00007F05BFF4FF48051014807F056FF10BD52
:1007E000000C0140000801400010014070B50446B3
:1007F000002520E004F0800020B18021F74807F0B8
:1008000044FF03E08021F54807F041FFC82007F0CE
:10081000AAF92021F14807F03AFFC82007F0A3F910
:100820002021EE4807F031FFC82007F09CF9600650
:10083000040E681CC5B2082DDCDB70BD70B5002548
:100840001CE06006040E2021E44807F020FFC820C9
:1008500007F089F94021E14807F0FDFE012801D1A8
:1008600044F00104C82007F07EF92021DB4807F09E
:100870000CFFC82007F077F9681CC5B2082DE0DB33
:10088000204670BD70B504467E2000EA440040F06A
:1008900080054FF48051D24807F0F9FE2846FFF753
:1008A000A5FFFFF7CBFF06464FF48051CC4807F079
:1008B000ECFE304670BD70B504460D467E2000EA61
:1008C00044064FF48051C64807F0E1FE3046FFF77A
:1008D0008DFF2846FFF78AFF4FF48051C04807F08C
:1008E000D4FE70BD70B505460C462846FFF7CAFF1A
:1008F000064646EA04012846FFF7DDFF70BD70B5E5
:1009000005460C462846FFF7BDFF064626EA0401C9
:100910002846FFF7D0FF70BD10B51420FFF7B2FFD7
:10092000044604F0030018B903211420FFF7DAFF8E
:1009300010BD10B503211420FFF7E1FF10BD10B565
:100940000221A84807F0A1FE012007F00CF90221BE
:10095000A44807F09CFE012007F005F90221A148F8
:1009600007F093FE012007F0FEF80F210120FFF7AA
:10097000A2FF00BF0120FFF785FF00F01000002854
:10098000F8D1012007F0EFF83D211120FFF793FF88
:100990001E212D20FFF78FFF00212C20FFF78BFF5A
:1009A0008D212A20FFF787FF3E212B20FFF783FFB1
:1009B00040211520FFF77FFF10BD10B50446412CE4
:1009C00024D108210846FFF79AFF3D211120FFF7A7
:1009D00072FF86211720FFF76EFF7F212620FFF789
:1009E0006AFF1E212D20FFF766FF00212C20FFF754
:1009F00062FF8D212A20FFF75EFF3E212B20FFF7AB
:100A00005AFF022007F0AFF8FFF786FF10BD2DE96F
:100A1000FE4F0646884691469A46DDF830B0BB2028
:100A200002900020019000900C2E06D00E2E09D1CD
:100A3000122001901020009005E0772001903020D6
:100A4000009000E000BF00BF019840F0800102204C
:100A5000FFF731FF80210420FFF751FF0021012023
:100A6000FFF729FF80210A20FFF73CFF002505E062
:100A700018F805100920FFF71EFF6D1C4D45F7D330
:100A800031460120FFF717FF0C2E03D180210D20E6
:100A9000FFF728FF4FF47A7500BF0420FFF7F2FE3E
:100AA00004466D1E35B104F0010018B900982040CD
:100AB0000028F2D080210D20FFF721FF95B30620FA
:100AC000FFF7E0FE00F01B0068BB262002900198B3
:100AD000204000F0010008B1CC2002900C2E24D15F
:100AE0000A20FFF7CFFE04460C20FFF7CBFE00F0F4
:100AF00007072FB1601E07EBC000CBF8000002E033
:100B0000E000CBF8000004B90124122C00DD12240F
:100B1000002505E00920FFF7B5FE0AF805006D1C69
:100B2000A542F7D301E0BB20029080210C20FFF703
:100B3000D9FE00210120FFF7BEFE0298BDE8FE8F1E
:100B400070B588B005460C4608210846FFF7D7FE69
:100B500007210D20FFF7AFFE03211420FFF7C2FE8F
:100B60008DF80C5002A803AB012203A900900C20C1
:100B7000FFF74DFF0646262E09D10298102806D110
:100B80009DF80C0020709DF80D00607000E0BB2601
:100B9000304608B070BDF0B587B005460027082183
:100BA0000846FFF7ACFE00210D20FFF784FE8021F0
:100BB0000E20FFF7A4FE93208DF8080020208DF86A
:100BC000090001A802AB022202A900900C20FFF745
:100BD0001EFF0646262E16D100240DE00008014017
:100BE000000C01400010014002A8005D285502A839
:100BF000005D4740601CC4B2042CF5DB02A8005D18
:100C0000B84200D0BB2680210E20FFF76BFE304695
:100C100007B0F0BD2DE9F04107468846154604218E
:100C20000520FFF76CFE00210120FFF744FE802124
:100C30000A20FFF757FE002405E0395D0920FFF781
:100C40003AFE601CC4B24445F7DB03210120FFF7E4
:100C500032FEFF2400BF0520FFF714FE0646601E8B
:100C6000C4B21CB106F004000028F4D02220FFF723
:100C700009FE28702120FFF705FE6870BDE8F081AD
:100C800070B588B0054693208DF80C0070208DF863
:100C90000D0000208DF8120000240BE0295D03AA4E
:100CA000A01C11549DF81200295D48408DF81200D7
:100CB000601CC4B2042CF1DB0DF11302072103A860
:100CC000FFF7A8FF08210846FFF719FE02A803ABAB
:100CD000092203A900900C20FFF799FE0646262E54
:100CE00003D10298182800D100E0BB26304608B096
:100CF00070BD2DE9F04387B006460F4690469946F1
:100D00008DF808608DF80970002406E018F80410CA
:100D100002AAA01C1154601CC4B2062CF6DB0024ED
:100D200007E019F8041002AA04F108001154601C2D
:100D3000C4B2062CF5DB01A802AB0C2202A900907C
:100D40000E20FFF764FE0546262D05D10820FFF78B
:100D500099FD00F0080000B9BB25284607B0BDE8A2
:100D6000F083F0B587B006460F46A0208DF8080046
:100D70008DF809600DF10A02022102A8FFF74AFF6F
:100D800001A802AB042202A900900C20FFF73FFE4D
:100D90000546262D08D10198042805D19DF80800A4
:100DA00000F00F000A2800D0BB25262D22D10024F8
:100DB00004E0385D02A90855601CC4B2102CF8DBB1
:100DC00006AA102102A8FFF725FF01A802AB1222F4
:100DD00002A900900C20FFF71AFE0546262D08D127
:100DE0000198042805D19DF8080000F00F000A289A
:100DF00000D0BB25284607B0F0BDF0B587B005464A
:100E00000E4630208DF808008DF809500DF10A02C9
:100E1000022102A8FFF7FEFE01A802AB042202A9EC
:100E200000900C20FFF7F3FD0746262F0CD1019808
:100E3000902809D1002404E002A8005D3055601C10
:100E4000C4B2102CF8DB00E0BB27384607B0F0BD79
:100E500000B587B050208DF8080000208DF80900FB
:100E60000DF10A02022102A8FFF7D4FE01A802AB8D
:100E7000042202A900900C20FFF7C9FD262007B02C
:100E800000BDF8B504460D4617461E4600200090EA
:100E900069465220FFF754FE6846FFF77CFE204665
:100EA000FFF7EEFE23462A4610216020FFF721FFC0
:100EB00027B131461020FFF7A0FF03E03146102094
:100EC000FFF74FFFFFF7C4FFF8BD000008B54FF470
:100ED000E06006F059FF1C208DF8000001208DF81D
:100EE00001008DF802008DF80300684606F051FFFE
:100EF00008BD08B50121042007F0D6FD0820ADF893
:100F0000000018208DF8030003208DF802006946C8
:100F1000FD4807F00DFB0121080207F0C5FD4FF465
:100F20000040ADF8000010208DF8030003208DF87C
:100F300002006946F54807F0FBFA4FF40041F34818
:100F400007F0A5FB0121102007F0AEFD1020ADF841
:100F500000008DF8030003208DF802006946EC487C
:100F600007F0E6FA1021EA4807F091FB08BD00B54A
:100F700087B00121084607F0A4FD04A808F0F8F99D
:100F80000920ADF814004720ADF810000020ADF89E
:100F90001600ADF8120004A94FF0804007F0BCFE27
:100FA0007020ADF800000120ADF802000020ADF87F
:100FB00004000420ADF806000220ADF8080000206F
:100FC000ADF80C0069464FF0804007F0BCFF0821E7
:100FD000C80608F04CFB0121880708F0F9FA012146
:100FE000880708F04DFC0121880708F0CBFC01229E
:100FF0001146900708F007FA00214FF0804008F0F2
:10100000E7F907B000BD10B5FFF773FFFFF75EFF0C
:10101000FFF7ADFF10BD10B504466CB11021BC4800
:1010200007F033FBBB48007820F00400B949087092
:10103000B94809F0C5F80DE01021B54807F027FBC5
:10104000B448007820F00400001DB2490870B3488D
:1010500009F0B6F810BD2DE9F04F89B004460D46F1
:1010600016469B46002C08DAAD48007820F00800B0
:101070000830AB490870644205E0A948007820F0C8
:101080000800A7490870A6480078C0F3C00028B936
:101090004FF400419D4807F0FAFA04E04FF4004194
:1010A0009A4807F0F2FA012C1FD1A01E9C49486112
:1010B0000846007820F00700801C08704FF47A7012
:1010C00048609448007820F00100401C9149087065
:1010D0001421080708F012FC0A21480708F016FC42
:1010E0000121880708F074F982E0002CFCD047F653
:1010F000B720B0FBFBF08A4908618A48B0FBF5F0E5
:10110000019009F090FC074609F0E2FA0022864BB4
:10111000CDE9020109F09AFC0022844BCDE90401DB
:1011200009F0FCFACDE9060109F050FC7C49486061
:1011300005EB450040006421B0FBF1F10BFB0BF027
:10114000B0FBF1F9B9F1000F01D14FF0010904FB37
:1011500006F0A919B0FBF1FABAF1000F01D14FF076
:10116000010ACA4504D8AAEB04006D49C86006E02C
:1011700009FB05F0B0FBF6F040426949C8606848D9
:10118000C06818B94FF0FF306549C8606448C0684E
:1011900020446349886008464068096988420AD843
:1011A0005F4800695E4948600846007820F0070003
:1011B000C01C087006E05A48007820F00700401C68
:1011C000574908700020564948615248007820F07D
:1011D0000100401C4F4908701421080708F08EFBDD
:1011E0000A21480708F092FB0121880708F0F0F86F
:1011F00009B0BDE8F08F012805D14D490968491EA5
:101200004B4A116004E04A490968491C484A116088
:10121000704710B50121880708F0A3FB002872D0A1
:101220000121880708F0AEFB3D484068C0F34F003D
:10123000404908803A488088090688853548007802
:10124000C0F3800028B93648007820F00700344900
:1012500008703348007800F0070030B101281DD035
:1012600002286DD0032818D193E00020324908608D
:10127000324908604FF08040008C20F480504FF0DD
:101280008041088400214FF0804008F0A1F82148F7
:10129000007820F001001F490870E3E04FF0804023
:1012A000008C40F480504FF0804108841C4909783C
:1012B000C1F3C000FFF79FFF1F480068401C1E4994
:1012C000086017484069401C154948610846406855
:1012D0001A490968022202FB001111484069800086
:1012E000401C91FBF0F00E4949680C1A0C4840680C
:1012F0001249096802FB0011094840698000401C3E
:1013000091FBF0F21DE0B0E0000801400020014038
:10131000001001402000002018C6000860C6000828
:10132000B4000020ACDF5F000068BA400000594004
:101330001C00002040000040280000202C0000205D
:101340004DE000FB12105849086058488068584921
:10135000096888420AD85548C06854494861084617
:10136000007820F00700801C087011E04F480069E9
:10137000A0420DD34F4804604C48046900204A49FC
:1013800008604A48007820F00700C01C47490870F0
:1013900068E04FF08040008C40F480504FF0804176
:1013A000088442490978C1F3C000FFF724FF404890
:1013B0000068401C3E4908603C4804698068096830
:1013C00088420BD83948C0683849486139480468B0
:1013D0000846007820F00700801C087042E04FF0BB
:1013E0008040008C40F480504FF0804108842F49A9
:1013F0000978C1F3C000FFF7FEFE2D480068401CCD
:101400002B49086029484069401C28494861084622
:10141000406825490968022202FB001123484069FF
:101420008000401C91FBF0F0204949680C1A1F48CD
:1014300040681D49096802FB00111C484069800092
:10144000401C91FBF0F200FB12101749086017488E
:101450004069002805DB1548007820F00700134993
:10146000087000BF00BF1148446013480068642141
:1014700090FBF1F201FB120020B90F4801680FA0A8
:1014800008F09EFE0C48006841F68701884202DDA4
:10149000002009490860084800680E49884202DABD
:1014A00000200549086010BD2C000020B400002079
:1014B00028000020240000201C000020B2BDBDF840
:1014C000B5E7BBFA30B5B1C7B0CEBBD6C33A2564D9
:1014D0000D0A000079E7FFFF7FB505460C460121A4
:1014E000022007F0EEFAADF80850ADF804400020F5
:1014F000ADF80A00ADF8060001A9214807F00CFC80
:10150000012211461E4807F07EFF1D208DF80000C5
:1015100002208DF8010003208DF8020001208DF8D3
:101520000300684606F035FC0121154807F050FF1E
:101530007FBD10B50121124808F013FAF0B1012166
:101540000F4808F01FFA1423052211460D48FFF733
:1015500082FD1423052211460B4800F0DAF814230B
:10156000052211460848404200F0D4FB07480068B5
:1015700008B9012000E000200449086010BD000007
:10158000000400402095090040F49EFF9481214210
:1015900008B54FF4E06006F0F7FB32208DF800004C
:1015A00001208DF801008DF802008DF803006846D7
:1015B00006F0EFFB08BD08B50121042007F074FA1E
:1015C0000420ADF8000018208DF8030003208DF8EA
:1015D00002006946FE4806F0ABFF0121082007F033
:1015E00063FA8020ADF8000010208DF8030003207E
:1015F0008DF802006946F74806F09AFF8021F54809
:1016000007F045F80121102007F04EFA0420ADF84C
:10161000000010208DF8030003208DF802006946B9
:10162000ED4806F085FF0421EB4807F030F808BDCF
:1016300000B587B00121082007F043FA04A807F09D
:1016400097FE0920ADF814004720ADF810000020E7
:10165000ADF81600ADF8120004A9E04807F05CFBF5
:101660007020ADF800000120ADF802000020ADF8B8
:1016700004000420ADF806000220ADF808000020A8
:10168000ADF80C006946D54807F012FC0821D34894
:1016900007F0E4FF0121D14807F09AFF0121CF486C
:1016A00008F0EEF80121CD4808F06CF9012211464E
:1016B000CA4807F0A8FE0021C84807F089FE07B015
:1016C00000BD10B5FFF777FFFFF762FFFFF7B0FF30
:1016D00010BD10B504466CB10421BF4806F0D5FF1B
:1016E000BF48007820F00400BD490870BD4808F0EC
:1016F00067FD0DE00421B84806F0C9FFB84800783E
:1017000020F00400001DB6490870B74808F058FDE5
:1017100010BD2DE9F04F89B004460D4616469B4694
:10172000002C08DAB148007820F008000830AF49F2
:101730000870644205E0AD48007820F00800AB492D
:101740000870AA480078C0F3C00020B98021A148E1
:1017500006F09DFF03E080219E4806F096FF012CD5
:101760001FD1A01EA14948610846007820F007005B
:10177000801C08704FF47A7048609948007820F017
:101780000100401C964908701421944808F0B6F8EE
:101790000A21924808F0B8F80121904807F018FE95
:1017A00082E0002CFCD047F6B720B0FBFBF08F495D
:1017B00008618F48B0FBF5F0019009F034F9074655
:1017C00008F086FF00228B4BCDE9020109F03EF9BB
:1017D0000022894BCDE9040108F0A0FFCDE9060104
:1017E00009F0F4F88149486005EB450040006421A8
:1017F000B0FBF1F10BFB0BF0B0FBF1F9B9F1000F0D
:1018000001D14FF0010904FB06F0A919B0FBF1FA70
:10181000BAF1000F01D14FF0010ACA4504D8AAEB72
:1018200004007249C86006E009FB05F0B0FBF6F061
:1018300040426E49C8606D48C06818B94FF0FF302B
:101840006A49C8606948C068204468498860084699
:101850004068096988420AD8644800696349486059
:101860000846007820F00700C01C087006E05F48BA
:10187000007820F00700401C5C49087000205B499C
:1018800048615748007820F00100401C5449087016
:101890001421524808F032F80A21504808F034F870
:1018A00001214E4807F094FD09B0BDE8F08F0128F2
:1018B00005D152490968491E504A116004E04F4958
:1018C0000968491C4D4A1160704710B50121434811
:1018D00008F047F8002879D00121404808F052F874
:1018E00042484068C0F34F003C493C3108803F48C3
:1018F00080883A492C31088039480078C0F380004C
:1019000028B93A48007820F007003849087037486D
:10191000007800F0070030B101281CD0022856D012
:10192000032817D192E00020354908603549086046
:101930002A482030008820F480502849203108802F
:101940000021264807F044FD2548007820F00100DA
:1019500023490870DFE021482030008840F480509F
:101960001E492031088021490978C1F3C000FFF7E2
:101970009EFF23480068401C214908601B484069BD
:10198000401C1A494861084640681E4909680222FD
:1019900002FB0011154840698000401C91FBF0F0EB
:1019A000124949680C1A114840681649096802FB37
:1019B00000110E4840698000401C91FBF0F200FBD2
:1019C000121010490860094880681DE0A6E061E037
:1019D00000080140000C014000100140000C0040D4
:1019E0003400002018C6000860C60008CC000020A3
:1019F000ACDF5F000068BA400000594030000020B2
:101A00003C000020400000205449096888420AD860
:101A10005348C068524948610846007820F00700E2
:101A2000801C087011E04E480069A0420DD34D485B
:101A300004604B48046900204B490860484800781E
:101A400020F00700C01C4649087064E04748008841
:101A500040F480504549088041490978C1F3C000ED
:101A6000FFF725FF3D480068401C3C4908603C48A2
:101A700004698068096888420BD83948C0683849C9
:101A80004861384804680846007820F00700801C48
:101A9000087040E03548008840F4805033490880A1
:101AA0002F490978C1F3C000FFF701FF2B480068F8
:101AB000401C2A4908602A484069401C284948615E
:101AC0000846406828490968022202FB00112448A0
:101AD00040698000401C91FBF0F0214949680C1AD4
:101AE0001F4840682049096802FB00111C484069F2
:101AF0008000401C91FBF0F200FB12101A490860B4
:101B000017484069002805DB1548007820F00700D9
:101B10001349087000BF00BF1148446014480068B2
:101B2000642190FBF1F201FB120020B9104801681A
:101B300010A008F045FB0E48006841F6D701884226
:101B400002DD00200A490860094800680F49884200
:101B500002DA00200649086010BD00003C000020A9
:101B6000CC0000203800002040000020200C004065
:101B700030000020B2BDBDF8B5E7BBFA31B5B1C742
:101B8000B0CEBBD6C33A25640D0A000029E7FFFF9B
:101B900008B54FF4E06006F0F7F81E208DF800005D
:101BA00001208DF801008DF802008DF803006846D1
:101BB00006F0EFF808BD08B50121082006F074FF13
:101BC0004FF40070ADF8000018208DF803000320DA
:101BD0008DF802006946FE4806F0AAFC01210820A3
:101BE00006F062FF4020ADF8000010208DF80300E1
:101BF00003208DF802006946F54806F099FC402163
:101C0000F34806F044FD0121102006F04DFF0820A6
:101C1000ADF8000010208DF8030003208DF80200BD
:101C20006946EC4806F084FC0821EA4806F02FFDDE
:101C300008BD00B587B00121042006F042FF04A8CA
:101C400007F096FB0920ADF814004720ADF810000E
:101C50000020ADF81600ADF8120004A9DE4807F028
:101C60005BF87020ADF800000120ADF80200002004
:101C7000ADF804000420ADF806000220ADF808001D
:101C80000020ADF80C006946D34807F05CF9082144
:101C9000D14807F0ECFC0121CF4807F099FC012165
:101CA000CD4807F0EDFD0121CB4807F06BFE012286
:101CB0001146C94807F0A7FB0021C74807F088FB79
:101CC00007B000BD10B5FFF776FFFFF761FFFFF724
:101CD000B0FF10BD10B504466CB10821BD4806F038
:101CE000D4FCBE48007820F00400BC490870BC4811
:101CF00008F066FA0DE00821B64806F0C8FCB748BF
:101D0000007820F00400001DB4490870B54808F0C0
:101D100057FA10BD2DE9F04F89B004460D4616461E
:101D20009B46002C08DAB048007820F00800083004
:101D3000AD490870644205E0AB48007820F0080027
:101D4000A9490870A8480078C0F3C00020B9402114
:101D50009F4806F09CFC03E040219D4806F095FC5E
:101D6000012C1FD1A01EA04948610846007820F030
:101D70000700801C08704FF47A704860974800781C
:101D800020F00100401C954908701421924807F08A
:101D9000B5FD0A21904807F0B9FD01218E4807F0F2
:101DA00017FB82E0002CFCD047F6B720B0FBFBF01D
:101DB0008D4908618D48B0FBF5F0019008F033FEC5
:101DC000074608F085FC0022894BCDE9020108F0A6
:101DD0003DFE0022874BCDE9040108F09FFCCDE9D0
:101DE000060108F0F3FD8049486005EB450040001E
:101DF0006421B0FBF1F10BFB0BF0B0FBF1F9B9F191
:101E0000000F01D14FF0010904FB06F0A919B0FB46
:101E1000F1FABAF1000F01D14FF0010ACA4504D816
:101E2000AAEB04007049C86006E009FB05F0B0FBAE
:101E3000F6F040426C49C8606B48C06818B94FF072
:101E4000FF306949C8606848C068204466498860B6
:101E500008464068096988420AD8634800696249AF
:101E600048600846007820F00700C01C087006E0B3
:101E70005D48007820F00700401C5B490870002096
:101E8000594948615548007820F00100401C5349E9
:101E900008701421504807F031FD0A214E4807F020
:101EA00035FD01214C4807F093FA09B0BDE8F08FE9
:101EB000012805D150490968491E4F4A116004E0C4
:101EC0004D490968491C4C4A1160704710B5012101
:101ED000414807F046FD002878D001213E4807F030
:101EE00051FD41484068C0F34F003B493C310880F8
:101EF0003D48808838492C31088038480078C0F344
:101F0000800028B93848007820F00700364908706A
:101F10003548007800F0070030B101281CD00228B5
:101F200055D0032817D190E0002034490860344987
:101F3000086029482030008820F48050264920314C
:101F400008800021244807F043FA2448007820F054
:101F5000010022490870DDE01F482030008840F46D
:101F600080501D49203108801F490978C1F3C00005
:101F7000FFF79EFF21480068401C204908601A486E
:101F80004069401C18494861084640681C49096876
:101F9000022202FB0011144840698000401C91FBA2
:101FA000F0F0114949680C1A0F4840681449096853
:101FB00002FB00110C4840698000401C91FBF0F2CC
:101FC00000FB12100E49086007481BE0A5E060E026
:101FD000000C0140001001400008004048000020B3
:101FE00018C6000860C60008E4000020ACDF5F00EF
:101FF0000068BA4000005940440000205000002012
:102000005400002080685449096888420AD853481F
:10201000C068524948610846007820F00700801CDB
:10202000087011E04D480069A0420DD34C4804608F
:102030004A48046900204B4908604848007820F06D
:102040000700C01C4549087064E04748008840F418
:1020500080504549088041490978C1F3C000FFF725
:1020600027FF3D480068401C3B4908603B48046925
:102070008068096888420BD83848C0683749486189
:10208000374804680846007820F00700801C087074
:1020900040E03548008840F48050334908802F499B
:1020A0000978C1F3C000FFF703FF2B480068401C0C
:1020B0002949086029484069401C28494861084668
:1020C000406828490968022202FB00112348406940
:1020D0008000401C91FBF0F0204949680C1A1F4811
:1020E00040682049096802FB00111C4840698000D3
:1020F000401C91FBF0F200FB12101A4908601748CF
:102100004069002805DB1548007820F007001349D6
:10211000087000BF00BF1148446014480068642183
:1021200090FBF1F201FB120020B91048016810A0E9
:1021300008F046F80D48006841F6D701884202DDF4
:1021400000200A490860094800680F49884202DAFD
:1021500000200649086010BD50000020E400002067
:102160004C000020540000202008004044000020C3
:10217000B2BDBDF8B5E7BBFA32B5B1C7B0CEBBD67C
:10218000C33A25640D0A000029E7FFFFF7490880DC
:102190007047F649891C0880704708B5F348801CD1
:1021A00000880090BDF8000008BDF04A1080921C25
:1021B0001180704710B504462046FFF7E7FF052061
:1021C00005F0D1FCFFF7E9FF10BDE9480089E749B8
:1021D00008807047E549891C0880704730B5014682
:1021E00001F01F04C1F34513CA0AE50205EB4315CC
:1021F0001544A8B230BD00BF0100A0F10102D0B269
:10220000FAD1704710B503460C46D948808849F288
:102210004131884205D0D648808845F21031884245
:1022200014D1D3494889FFF7B1FF1812FFF7B1FF66
:10223000D8B2FFF7AEFFCE498889FFF7A7FF20127B
:10224000FFF7A7FFE0B2FFF7A4FFABE0C848808824
:1022500046F6040188421DD1C5488079012804D181
:10226000C3480088401EC01A83B2C1494889FFF79D
:102270008DFF1812FFF78DFFD8B2FFF78AFFBC4918
:102280008889FFF783FF2012FFF783FFE0B2FFF793
:1022900080FF87E0B648808841F66311884247D1C5
:1022A000B3488079A8B9B2480088401EC01A83B2EA
:1022B000AF494889FFF76AFF0020FFF76AFF002057
:1022C000FFF767FF1812FFF764FFD8B2FFF761FF4F
:1022D00016E0A7494889FFF759FF1812FFF759FF81
:1022E000D8B2FFF756FFA2490988491EC1F30F2053
:1022F000FFF74FFF9E490978491EC8B2FFF749FF13
:102300009B498889FFF742FF2012FFF742FFE0B2A6
:10231000FFF73FFF96494988491EC1F30F20FFF799
:1023200038FF93498978491EC8B2FFF732FF39E078
:102330008F48808845F21051884220D18C494889C5
:10234000FFF724FF1812FFF724FF89494989491C28
:1023500088B2FFF71BFFD8B2FFF71BFF84498889BB
:10236000FFF714FF2012FFF714FF81498989491CE8
:1023700088B2FFF70BFFE0B2FFF70BFF12E07C48DB
:102380008079012804D17A480088401EC01A83B29F
:10239000774948891946FFF708FF7549888921461A
:1023A000FFF703FF10BD2DE9F04105460E4600245E
:1023B0000027A0466E480088A84203DD6C4840888C
:1023C000B04202DC0020BDE8F08131462846FFF72C
:1023D00019FF6748808849F24131884211D064482A
:1023E000808846F6040188420BD06148808845F217
:1023F0001031884205D05E48808841F663118842DA
:1024000003D12E20FFF7C2FE0DE05948808845F227
:102410001051884204D14FF43850FFF7B7FE02E064
:102420002220FFF7B3FE5248808849F220318842CB
:1024300002D10220FFF7DFFEFFF7AFFE04464C4853
:10244000808841F66311884201D12046BBE7022013
:10245000FFF7D1FEFFF7A1FE04464548808849F208
:10246000413188420BD04248808845F21031884281
:1024700005D03F48808845F2105188420AD1022099
:10248000FFF7B9FEFFF789FE8046E7B24FF6FF700F
:1024900000EA07273648808849F22531884216D05D
:1024A0003348808844F23551884210D030488088C3
:1024B000091F88420BD02E4880884BF20551884274
:1024C00005D02B4880884CF20551884201D1204626
:1024D00079E72748808849F2413188420BD0244867
:1024E000808845F21031884205D02148808845F225
:1024F0001051884207D1E012C002B91240EA4110DF
:1025000040EAE8205FE72046FFF768FE5BE700B59A
:102510001748808849F24131884211D01448808898
:1025200046F6040188420BD01148808845F21031EC
:10253000884205D00E48808841F66311884203D155
:102540002920FFF723FE0FE00948808845F210514B
:10255000884204D14FF42450FFF718FE04E040F203
:1025600073110720FFF721FE00BD0000FE07006C7D
:10257000FC00002000B5FD48808849F241318842C6
:1025800011D0FA48808846F6040188420BD0F748FB
:10259000808845F21031884205D0F448808841F6A1
:1025A0006311884203D12820FFF7F0FD0EE0EF48C9
:1025B000808845F21051884204D14FF42050FFF733
:1025C000E5FD03E000210720FFF7EFFD00BD70B53A
:1025D000044600230026E548807901280BD1E34812
:1025E000808846F60401884205D0E048808841F69C
:1025F0006311884208D1DD488079F0B9DB488088D2
:1026000041F66311884218D1082C15D2DFE804F096
:102610000406080A0C0E101206240DE007240BE035
:10262000042409E0052407E0012405E0002403E078
:10263000032401E0022400BF00BFCC48808849F297
:102640004131884217D0C948808846F60401884243
:1026500011D0C648808845F2103188420BD0C3485B
:10266000808845F21051884205D0C048808841F6E4
:10267000631188427ED1082C1CD2DFE804F00406E6
:10268000090C0F12151800BF14E043F0800311E08D
:1026900043F040030EE043F0C0030BE043F020039F
:1026A00008E043F0600305E043F0A00302E043F0DC
:1026B000E00300BF00BFAD48808845F2105188425A
:1026C00002D14FF4585600E03626A848808845F2DB
:1026D000103188420DD0A548808845F210518842BB
:1026E00007D0A248808841F66311884201D043F0A8
:1026F00008039E48808846F60401884201D143F0D1
:10270000020319463046FFF750FD9848808841F68D
:10271000631188421DD003F0200068B193480088FF
:1027200092494988884214DA9048058840888F4940
:102730000880084645800CE08C4800888B49498811
:10274000884206DD8948058840888849088008460F
:1027500045808648808845F21051884254D183498B
:102760004889FFF713FD0020FFF713FD7F494989D2
:10277000491C00E077E088B2FFF708FD0020FFF772
:1027800008FD7A494989891C88B2FFF7FFFC77491F
:102790000988491EC1F30F20FFF7FBFC73494989E3
:1027A000C91C88B2FFF7F2FC70490978491EC8B20B
:1027B000FFF7EFFC6D498889FFF7E8FC0020FFF781
:1027C000E8FC6A498989491C88B2FFF7DFFC0020D0
:1027D000FFF7DFFC65498989891C88B2FFF7D6FCC1
:1027E00062494988491EC1F30F20FFF7D2FC5F49B7
:1027F0008989C91C88B2FFF7C9FC5C498978491EE0
:10280000C8B2FFF7C6FC55E058494889FFF7BEFC3F
:102810000020FFF7BEFC0020FFF7BBFC53490988EE
:10282000491EC1F30F20FFF7B4FC50490978491E37
:10283000C8B2FFF7AEFC4D498889FFF7A7FC00201E
:10284000FFF7A7FC0020FFF7A4FC48494988491E70
:10285000C1F30F20FFF79DFC44498978491EC8B297
:10286000FFF797FC26E0082C1CD2DFE804F00407F1
:102870000A0D0F12151843F0300313E043F0100354
:1028800010E043F020030DE000BF0BE043F03803FD
:1028900008E043F0280305E043F0180302E043F0AA
:1028A000080300BF00BF032643F480531946304697
:1028B000FFF77BFC70BD30B504460D462946204627
:1028C000FFF7A0FCFFF781FC294800882949088010
:1028D00030BD30B503460C4615462448808849F281
:1028E0004131884205D02148808845F21031884224
:1028F00014D11E494889FFF749FC1812FFF749FC1B
:10290000D8B2FFF746FC19498889FFF73FFC20122F
:10291000FFF73FFCE0B2FFF73CFC93E013488088F0
:1029200045F21051884227D110494889FFF72EFC03
:102930001812FFF72EFC0D494989491C88B2FFF790
:1029400025FCD8B2FFF725FC08498889FFF71EFC53
:102950002012FFF71EFC05498989491C88B2FFF740
:1029600015FCE0B2FFF715FC6CE00000FC00002055
:10297000580000200008006CFC48808841F6631174
:10298000884228D1F948807920B9F8480088401E4B
:10299000C01A83B2F5494889FFF7F8FB1812FFF710
:1029A000F8FBD8B2FFF7F5FB1812FFF7F2FBD8B22D
:1029B000FFF7EFFBED498889FFF7E8FB2012FFF7EF
:1029C000E8FBE0B2FFF7E5FB2012FFF7E2FBE0B225
:1029D000FFF7DFFB36E0E548808846F604018842D1
:1029E0001DD1E2488079012804D1E0480088401ECA
:1029F000C01A83B2DD494889FFF7C8FB1812FFF7F8
:102A0000C8FBD8B2FFF7C5FBD8498889FFF7BEFBE2
:102A10002012FFF7BEFBE0B2FFF7BBFB12E0D3488A
:102A20008079012804D1D1480088401EC01A83B2A1
:102A3000CE4948891946FFF7B8FBCC498889214619
:102A4000FFF7B3FBC9480089C9490880881C058085
:102A500030BD2DE9F0470446BE20FFF797FB052067
:102A6000FFF797FB204607F0DEFF07464FF0663280
:102A7000C04B07F0EBFF054607F0A8FF1FFA80F9EF
:102A80004846FFF786FB0120FFF783FBFF20FFF797
:102A900080FB0020FFF77DFB0020FFF77AFBBDE8FD
:102AA000F08710B50446002C66D1B0498871F0203B
:102AB00008804FF4A07048800846808849F2413170
:102AC00088420BD0A948808846F60401884205D088
:102AD000A648808845F2103188421AD12C20A3499B
:102AE00008812A2048812B2088810846808846F664
:102AF0000401884205D09D48808845F21031884203
:102B000006D14FF4A070994908804FF4F0704880C6
:102B1000A1E09648808845F21051884210D14FF4C8
:102B20003050924908814FF4285048814FF42C507E
:102B300088814FF4F07008804FF4487048808AE034
:102B40008A48808841F6631188420DD12C2087493C
:102B500008812B2048812A2088814FF4F07008805A
:102B60004FF44870488076E0222080490881202078
:102B70004881212088816EE001207C4988714FF4D2
:102B8000A0700880F02048800846808849F24131D2
:102B9000884205D07548808845F21031884207D1B7
:102BA0002C20724908812A2048812B2088813FE00F
:102BB0006E48808846F60401884207D12C206B4974
:102BC00008812B2048812A20888131E0674880884D
:102BD00045F21051884210D14FF4305063490881BA
:102BE0004FF4285048814FF42C5088814FF448709E
:102BF00008804FF4F07048801AE05C48808841F605
:102C0000631188420DD12C20584908812A2048811F
:102C10002B2088814FF4487008804FF4F070488072
:102C200006E0222051490881212048812020888106
:102C30004E48808846F60401884205D04B4880887B
:102C400045F21031884206D14FF4F07047490880B0
:102C50004FF4A07048800020FFF7B9FC10BD2DE9AB
:102C6000F04F86B004460D469046994604EB0800A6
:102C7000401E86B205EB0900401E87B23B488088A3
:102C800049F24131884215D03848808845F21031E8
:102C900088420FD03548808846F60401884209D022
:102CA00032488079012826D13048808841F6631166
:102CB000884220D12D494889FFF768FA2012FFF792
:102CC00068FAE0B2FFF765FA3012FFF762FAF0B285
:102CD000FFF75FFA25498889FFF758FA2812FFF7AE
:102CE00058FAE8B2FFF755FA3812FFF752FAF8B27D
:102CF000FFF74FFABEE01D48808841F66311884215
:102D00003AD11A480088A0EB0800001B84B205EBFA
:102D10000900401E1FFA80F914494889FFF736FA66
:102D20002012FFF736FAE0B2FFF733FA04EB08019E
:102D3000491EC1F30F20FFF72CFA04EB0801491ECE
:102D4000C8B2FFF726FA09498889FFF71FFA281247
:102D5000FFF71FFAE8B2FFF71CFA4FEA2920FFF746
:102D600018FA09F0FF00FFF714FA83E0FC000020D6
:102D7000FE07006C66660440FE48808845F21051EC
:102D8000884244D1FB494889FFF700FA2012FFF737
:102D900000FAF8494989491C88B2FFF7F7F9E0B20F
:102DA000FFF7F7F9F3494989891C88B2FFF7EEF973
:102DB0003012FFF7EEF9EF494989C91C88B2FFF7D5
:102DC000E5F9F0B2FFF7E5F9EA498889FFF7DEF99E
:102DD0002812FFF7DEF9E7498989491C88B2FFF715
:102DE000D5F9E8B2FFF7D5F9E2498989891C88B29B
:102DF000FFF7CCF93812FFF7CCF9DE498989C91CF5
:102E000088B2FFF7C3F9F8B2FFF7C3F932E0D94847
:102E1000807901280ED1AA46BB46D6480088801B7F
:102E2000401E80B20190D3480088001B401E80B233
:102E3000009003E0A246B34601950097502005900C
:102E4000512004905220039053200290514605983F
:102E5000FFF7ABF959460498FFF7A7F901990398D2
:102E6000FFF7A3F900990298FFF79FF9294620463A
:102E7000FFF7C8F906B0BDE8F08F70B5044600262C
:102E8000BC48058840884543BA48808846F6040116
:102E9000884216D1B7488079012812D10020B5495F
:102EA00088712A2048812B20888100210846FFF75D
:102EB000A9F90120AF4988712B2048812A208881F7
:102EC00003E000210846FFF79DF9FFF77EF9002691
:102ED00002E0A9480480761CAE42FAD370BD00B56A
:102EE0009FB00121080205F0D2FD01214FF4B4701A
:102EF00005F0DAFD0120ADF8780010208DF87B0098
:102F000003208DF87A001EA99C4805F011FB4CF2B5
:102F10003370ADF8780018208DF87B0003208DF811
:102F20007A001EA9964805F003FB4FF68070ADF8B5
:102F3000780018208DF87B0003208DF87A001EA9F8
:102F4000904805F0F5FA41F20100ADF8780018203C
:102F50008DF87B0003208DF87A001EA98A4805F0C1
:102F6000E7FA01200890002009900F200A90002025
:102F70000B900C900D900E90019002900320039006
:102F80000020049005900690079006200F900020E6
:102F90001090119010201290002013901590149012
:102FA000169017904FF480501890002019904FF40D
:102FB00080401A9000201B9008A81C9001A81D902A
:102FC0000FA804F09BFF0121062005F0FFF8322036
:102FD00004F0EDFD0020FFF7EDF866498880084613
:102FE0008088FF280ADB084680884FF6FF718842F8
:102FF00004D060488088B0F5134F7CD1D320FFF710
:10300000C5F8FFF7CAF85B498880FFF7C6F8594949
:103010008880FFF7C2F857498880084680884FF6B5
:10302000FF7101EA002053498880FFF7B6F8514943
:10303000898808434F4988800846808849F2413191
:10304000884258D0BF20FFF7A1F8FFF7A6F84949FA
:103050008880FFF7A2F847498880FFF79EF8454926
:103060008880FFF79AF843498880084680884FF6A1
:10307000FF7101EA00203F498880FFF78EF83D4943
:10308000898808433B4988800846808846F60401C1
:10309000884230D0D420FFF779F8FFF77EF8354921
:1030A0008880FFF77AF833498880FFF776F831494E
:1030B0008880084680884FF6FF7101EA00202D497C
:1030C0008880FFF76AF82B49898808432949888056
:1030D0000846808845F21031884263D04FF45A4048
:1030E000FFF754F8FFF759F8224988804FF45B4006
:1030F000FFF74CF800E055E0FFF74FF81D498880D6
:10310000084680884FF6FF7101EA0020194988803F
:103110004FF45C40FFF73AF8FFF73FF8154989880C
:1031200008431449888008468088B0F5004F02D1D2
:1031300045F2105088800F48808845F2105188422F
:1031400030D0A120FFF722F8FFF727F8094988803F
:10315000FFF723F807498880084680884FF6FF71FB
:1031600001EA002003498880FFF717F801498988A0
:1031700008430BE0FC0000200008006C000C01403C
:10318000001401400018014000200140FE498880E1
:103190000846808845F26171884203D141F6631088
:1031A000F9498880F8488188F8A007F009F8F648BE
:1031B000808849F2413188427ED1CF20FEF7E6FF78
:1031C0000020FEF7E6FFC120FEF7E3FF3020FEF708
:1031D000E0FFED20FEF7DAFF6420FEF7DAFF0320C0
:1031E000FEF7D7FF1220FEF7D4FF8120FEF7D1FFB4
:1031F000E820FEF7CBFF8520FEF7CBFF1020FEF77F
:10320000C8FF7A20FEF7C5FFCB20FEF7BFFF3920AD
:10321000FEF7BFFF2C20FEF7BCFF0020FEF7B9FF32
:103220003420FEF7B6FF0220FEF7B3FFF720FEF7CB
:10323000ADFF2020FEF7ADFFEA20FEF7A7FF00203C
:10324000FEF7A7FF0020FEF7A4FFC020FEF79EFFB9
:103250001B20FEF79EFFC120FEF798FF0120FEF71E
:1032600098FFC520FEF792FF3020FEF792FF302036
:10327000FEF78FFFC720FEF789FFB720FEF789FF13
:103280003620FEF783FF4820FEF783FF3A20FEF743
:103290007DFF5520FEF77DFFB120FEF777FF002070
:1032A000FEF777FF1A20FEF774FFB620FEF76EFFD9
:1032B0000A20FEF76EFF00E097E0A220FEF769FF0C
:1032C000F220FEF763FF0020FEF763FF2620FEF7E3
:1032D0005DFF0120FEF75DFFE020FEF757FF0F20A6
:1032E000FEF757FF2A20FEF754FF2820FEF751FF74
:1032F0000820FEF74EFF0E20FEF74BFF0820FEF7DA
:1033000048FF5420FEF745FFA920FEF742FF432067
:10331000FEF73FFF0A20FEF73CFF0F20FEF739FFC4
:103320000020FEF736FF0020FEF733FF0020FEF7F7
:1033300030FF0020FEF72DFFE120FEF727FF0020E1
:10334000FEF727FF1520FEF724FF1720FEF721FFC9
:103350000720FEF71EFF1120FEF71BFF0620FEF7D9
:1033600018FF2B20FEF715FF5620FEF712FF3C201A
:10337000FEF70FFF0520FEF70CFF1020FEF709FFF8
:103380000F20FEF706FF3F20FEF703FF3F20FEF76A
:1033900000FF0F20FEF7FDFE2B20FEF7F7FE0020BA
:1033A000FEF7F7FE0020FEF7F4FE0120FEF7F1FE27
:1033B0003F20FEF7EEFE2A20FEF7E8FE0020FEF793
:1033C000E8FE0020FEF7E5FE0020FEF7E2FEEF201B
:1033D000FEF7DFFE1120FEF7D9FE782004F0E7FBB0
:1033E0002920FEF7D3FE03F025B96748808846F60A
:1033F000040188427ED11120FEF7C8FE142004F09B
:10340000D6FBD020FEF7C2FE0720FEF7C2FE422008
:10341000FEF7BFFE1D20FEF7BCFED120FEF7B6FE74
:103420000020FEF7B6FE1A20FEF7B3FE0920FEF7D5
:10343000B0FED220FEF7AAFE0120FEF7AAFE22204F
:10344000FEF7A7FEC020FEF7A1FE1020FEF7A1FEAA
:103450003B20FEF79EFE0020FEF79BFE0220FEF7BB
:1034600098FE1120FEF795FEC520FEF78FFE032083
:10347000FEF78FFEC820FEF789FE0020FEF789FECA
:103480002520FEF786FE2120FEF783FE0520FEF7AD
:1034900080FE0020FEF77DFE0A20FEF77AFE652002
:1034A000FEF777FE2520FEF774FE7720FEF771FE0B
:1034B0005020FEF76EFE0F20FEF76BFE0020FEF799
:1034C00068FEF820FEF762FE0120FEF762FEFE2095
:1034D000FEF75CFE0020FEF75CFE0220FEF759FEC0
:1034E0002020FEF753FE3620FEF750FE0820FEF7A0
:1034F00050FE00E02AE03A20FEF748FE5520FEF795
:1035000048FE2B20FEF742FE0020FEF742FE002080
:10351000FEF73FFE0120FEF73CFE3F20FEF739FE9E
:103520002A20FEF733FE0020FEF733FE0020FEF7D0
:1035300030FE0120FEF72DFEDF20FEF72AFE782068
:1035400004F035FB2920FEF721FE4CE70E48808869
:1035500045F21031884240F08487ED20FEF716FED8
:103560000120FEF716FEFE20FEF713FEEE20FEF70A
:103570000DFEDE20FEF70DFE2120FEF70AFEF120F3
:10358000FEF704FE012009E0FC000020204C43442B
:103590002049443A25780D0A00000000FEF7F9FDA5
:1035A000DF20FEF7F3FD1020FEF7F3FDC420FEF749
:1035B000EDFD8F20FEF7EDFDC620FEF7E7FD0020B4
:1035C000FEF7E7FDE220FEF7E4FDE220FEF7E1FD75
:1035D000E220FEF7DEFDBF20FEF7D8FDAA20FEF7B1
:1035E000D8FDB020FEF7D2FD0D20FEF7D2FD002061
:1035F000FEF7CFFD0D20FEF7CCFD0020FEF7C9FD44
:103600001120FEF7C6FD0020FEF7C3FD1920FEF7CE
:10361000C0FD0020FEF7BDFD2120FEF7BAFD002011
:10362000FEF7B7FD2D20FEF7B4FD0020FEF7B1FD3B
:103630003D20FEF7AEFD0020FEF7ABFD5D20FEF75E
:10364000A8FD0020FEF7A5FD5D20FEF7A2FD0020ED
:10365000FEF79FFDB120FEF799FD8020FEF799FD52
:103660000020FEF796FD8B20FEF793FD0020FEF76D
:1036700090FD9620FEF78DFD0020FEF78AFDB2201A
:10368000FEF784FD0020FEF784FD0020FEF781FD9B
:103690000220FEF77EFD0020FEF77BFD0320FEF7F3
:1036A00078FD0020FEF775FDB320FEF76FFD0020CA
:1036B000FEF76FFD0020FEF76CFD0020FEF769FDB0
:1036C0000020FEF766FD0020FEF763FD0020FEF7F8
:1036D00060FD0020FEF75DFD0020FEF75AFD002092
:1036E000FEF757FD0020FEF754FD0020FEF751FDC8
:1036F0000020FEF74EFD0020FEF74BFD0020FEF7F8
:1037000048FD0020FEF745FD0020FEF742FD0020A9
:10371000FEF73FFD0020FEF73CFD0020FEF739FDDF
:103720000020FEF736FD0020FEF733FD0020FEF7F7
:1037300030FD0020FEF72DFD0020FEF72AFDB4200D
:10374000FEF724FD8B20FEF724FD0020FEF721FD6F
:103750009620FEF71EFD0020FEF71BFDA120FEF7C0
:1037600018FD0020FEF715FDB520FEF70FFD022025
:10377000FEF70FFD0020FEF70CFD0320FEF709FD0C
:103780000020FEF706FD0420FEF703FD0020FEF7F3
:1037900000FDB620FEF7FAFC0020FEF7FAFC002040
:1037A000FEF7F7FCB720FEF7F1FC0020FEF7F1FC76
:1037B0000020FEF7EEFC3F20FEF7EBFC0020FEF7BA
:1037C000E8FC5E20FEF7E5FC0020FEF7E2FC64204A
:1037D000FEF7DFFC0020FEF7DCFC8C20FEF7D9FCB6
:1037E0000020FEF7D6FCAC20FEF7D3FC0020FEF74D
:1037F000D0FCDC20FEF7CDFC0020FEF7CAFC7020D8
:10380000FEF7C7FC0020FEF7C4FC9020FEF7C1FCC9
:103810000020FEF7BEFCEB20FEF7BBFC0020FEF70D
:10382000B8FCDC20FEF7B5FC0020FEF7B2FCB820A7
:10383000FEF7ACFC0020FEF7ACFC0020FEF7A9FC74
:103840000020FEF7A6FC0020FEF7A3FC0020FEF7F8
:10385000A0FC0020FEF79DFC0020FEF79AFC002053
:10386000FEF797FCBA20FEF791FC2420FEF791FCAE
:103870000020FEF78EFC0020FEF78BFC0020FEF7F8
:1038800088FCC120FEF782FC2020FEF782FC00208D
:10389000FEF77FFC5420FEF77CFC0020FEF779FC4D
:1038A000FF20FEF776FC0020FEF773FCC220FEF737
:1038B0006DFC0A20FEF76DFC0020FEF76AFC042078
:1038C000FEF767FC0020FEF764FCC320FEF75EFCF9
:1038D0003C20FEF75EFC0020FEF75BFC3A20FEF782
:1038E00058FC0020FEF755FC3920FEF752FC002062
:1038F000FEF74FFC3720FEF74CFC0020FEF749FC9A
:103900003C20FEF746FC0020FEF743FC3620FEF785
:1039100040FC0020FEF73DFC3220FEF73AFC002080
:10392000FEF737FC2F20FEF734FC0020FEF731FCB9
:103930002C20FEF72EFC0020FEF72BFC2920FEF7A2
:1039400028FC0020FEF725FC2620FEF722FC0020A4
:10395000FEF71FFC2420FEF71CFC0020FEF719FCDC
:103960002420FEF716FC0020FEF713FC2320FEF7B0
:1039700010FC0020FEF70DFC3C20FEF70AFC0020A6
:10398000FEF707FC3620FEF704FC0020FEF701FCE2
:103990003220FEF7FEFB0020FEF7FBFB2F20FEF798
:1039A000F8FB0020FEF7F5FB2C20FEF7F2FB0020D1
:1039B000FEF7EFFB2920FEF7ECFB0020FEF7E9FB0A
:1039C0002620FEF7E6FB0020FEF7E3FB2420FEF7AF
:1039D000E0FB0020FEF7DDFB2420FEF7DAFB0020F1
:1039E000FEF7D7FB2320FEF7D4FB0020FEF7D1FB28
:1039F000C420FEF7CBFB6220FEF7CBFB0020FEF7D6
:103A0000C8FB0520FEF7C5FB0020FEF7C2FB8420A3
:103A1000FEF7BFFB0020FEF7BCFBF020FEF7B9FB72
:103A20000020FEF7B6FB1820FEF7B3FB0020FEF7E0
:103A3000B0FBA420FEF7ADFB0020FEF7AAFB182088
:103A4000FEF7A7FB0020FEF7A4FB5020FEF7A1FB2A
:103A50000020FEF79EFB0C20FEF79BFB0020FEF7EC
:103A600098FB1720FEF795FB0020FEF792FB9520B0
:103A7000FEF78FFB0020FEF78CFBF320FEF789FB9F
:103A80000020FEF786FBE620FEF783FB0020FEF712
:103A900080FBC520FEF77AFB3220FEF77AFB002080
:103AA000FEF777FB4420FEF774FB0020FEF771FB66
:103AB0006520FEF76EFB0020FEF76BFB7620FEF71D
:103AC00068FB0020FEF765FB8820FEF762FB002004
:103AD000FEF75FFBC620FEF759FB2020FEF759FBDF
:103AE0000020FEF756FB1720FEF753FB0020FEF7E1
:103AF00050FB0120FEF74DFB0020FEF74AFBC720DC
:103B0000FEF744FB0020FEF744FB0020FEF741FBDC
:103B10000020FEF73EFB0020FEF73BFBC820FEF72F
:103B200035FB0020FEF735FB0020FEF732FB0020BE
:103B3000FEF72FFB0020FEF72CFBC920FEF726FB2B
:103B40000020FEF726FB0020FEF723FB0020FEF7F7
:103B500020FB0020FEF71DFB0020FEF71AFB0020D3
:103B6000FEF717FB0020FEF714FB0020FEF711FB09
:103B70000020FEF70EFB0020FEF70BFB0020FEF7F7
:103B800008FB0020FEF705FB0020FEF702FB0020EB
:103B9000FEF7FFFA0020FEF7FCFA0020FEF7F9FA24
:103BA000E020FEF7F3FA1620FEF7F3FA0020FEF706
:103BB000F0FA1C20FEF7EDFA0020FEF7EAFA2120C9
:103BC000FEF7E7FA0020FEF7E4FA3620FEF7E1FA06
:103BD0000020FEF7DEFA4620FEF7DBFA0020FEF7B3
:103BE000D8FA5220FEF7D5FA0020FEF7D2FA642068
:103BF000FEF7CFFA0020FEF7CCFA7A20FEF7C9FADA
:103C00000020FEF7C6FA8B20FEF7C3FA0020FEF76D
:103C1000C0FA9920FEF7BDFA0020FEF7BAFAA820F4
:103C2000FEF7B7FA0020FEF7B4FAB920FEF7B1FAB2
:103C30000020FEF7AEFAC420FEF7ABFA0020FEF734
:103C4000A8FACA20FEF7A5FA0020FEF7A2FAD220B1
:103C5000FEF79FFA0020FEF79CFAD920FEF799FAAA
:103C60000020FEF796FAE020FEF793FA0020FEF718
:103C700090FAF320FEF78DFA0020FEF78AFAE12091
:103C8000FEF784FA1620FEF784FA0020FEF781FA88
:103C90001C20FEF77EFA0020FEF77BFA2220FEF7BA
:103CA00078FA0020FEF775FA3620FEF772FA002047
:103CB000FEF76FFA4520FEF76CFA0020FEF769FA6E
:103CC0005220FEF766FA0020FEF763FA6420FEF742
:103CD00060FA0020FEF75DFA7A20FEF75AFA00201B
:103CE000FEF757FA8B20FEF754FA0020FEF751FA40
:103CF0009920FEF74EFA0020FEF74BFAA820FEF7B7
:103D000048FA0020FEF745FAB920FEF742FA0020F3
:103D1000FEF73FFAC420FEF73CFA0020FEF739FA1E
:103D2000CA20FEF736FA0020FEF733FAD220FEF75B
:103D300030FA0020FEF72DFAD820FEF72AFA0020EC
:103D4000FEF727FAE020FEF724FA0020FEF721FA1A
:103D5000F320FEF71EFA0020FEF71BFAE220FEF722
:103D600015FA0520FEF715FA0020FEF712FA0B20CF
:103D7000FEF70FFA0020FEF70CFA1B20FEF709FAF7
:103D80000020FEF706FA3420FEF703FA0020FEF7C3
:103D900000FA4420FEF7FDF90020FEF7FAF94F2063
:103DA000FEF7F7F90020FEF7F4F96120FEF7F1F9CC
:103DB0000020FEF7EEF97920FEF7EBF90020FEF780
:103DC000E8F98820FEF7E5F90020FEF7E2F99720F0
:103DD000FEF7DFF90020FEF7DCF9A620FEF7D9F99F
:103DE0000020FEF7D6F9B720FEF7D3F90020FEF742
:103DF000D0F9C220FEF7CDF90020FEF7CAF9C7209E
:103E0000FEF7C7F90020FEF7C4F9D120FEF7C1F98B
:103E10000020FEF7BEF9D620FEF7BBF90020FEF722
:103E2000B8F9DD20FEF7B5F90020FEF7B2F9F3206E
:103E3000FEF7AFF90020FEF7ACF9E320FEF7A6F994
:103E40000520FEF7A6F90020FEF7A3F90A20FEF7E9
:103E5000A0F90020FEF79DF91C20FEF79AF900203A
:103E6000FEF797F93320FEF794F90020FEF791F959
:103E70004420FEF78EF90020FEF78BF95020FEF764
:103E800088F90020FEF785F96220FEF782F900200C
:103E9000FEF77FF97820FEF77CF90020FEF779F92C
:103EA0008820FEF776F90020FEF773F99720FEF7D9
:103EB00070F90020FEF76DF9A620FEF76AF90020E0
:103EC000FEF767F9B720FEF764F90020FEF761F905
:103ED000C220FEF75EF90020FEF75BF9C720FEF76F
:103EE00058F90020FEF755F9D120FEF752F90020CD
:103EF000FEF74FF9D520FEF74CF90020FEF749F9FF
:103F0000DD20FEF746F90020FEF743F9F320FEF727
:103F100040F90020FEF73DF9E420FEF737F90120D3
:103F2000FEF737F90020FEF734F90120FEF731F9EA
:103F30000020FEF72EF90220FEF72BF90020FEF7F5
:103F400028F92A20FEF725F90020FEF722F93C2067
:103F5000FEF71FF90020FEF71CF94B20FEF719F9B8
:103F60000020FEF716F95D20FEF713F90020FEF79A
:103F700010F97420FEF70DF90020FEF70AF98420ED
:103F8000FEF707F90020FEF704F99320FEF701F988
:103F90000020FEF7FEF8A220FEF7FBF80020FEF757
:103FA000F8F8B320FEF7F5F80020FEF7F2F8BE208F
:103FB000FEF7EFF80020FEF7ECF8C420FEF7E9F872
:103FC0000020FEF7E6F8CD20FEF7E3F80020FEF72C
:103FD000E0F8D320FEF7DDF80020FEF7DAF8DD2068
:103FE000FEF7D7F80020FEF7D4F8F320FEF7D1F85B
:103FF0000020FEF7CEF8E520FEF7C8F80020FEF717
:10400000C8F80020FEF7C5F80020FEF7C2F800202F
:10401000FEF7BFF80220FEF7BCF80020FEF7B9F863
:104020002920FEF7B6F80020FEF7B3F83C20FEF793
:10403000B0F80020FEF7ADF84B20FEF7AAF80020FC
:10404000FEF7A7F85D20FEF7A4F80020FEF7A1F820
:104050007420FEF79EF80020FEF79BF88420FEF700
:1040600098F80020FEF795F89320FEF792F80020CC
:10407000FEF78FF8A220FEF78CF80020FEF789F8F3
:10408000B320FEF786F80020FEF783F8BE20FEF787
:1040900080F80020FEF77DF8C420FEF77AF80020B3
:1040A000FEF777F8CD20FEF774F80020FEF771F8E0
:1040B000D320FEF76EF80020FEF76BF8DC20FEF749
:1040C00068F80020FEF765F8F320FEF762F800209C
:1040D000FEF75FF8E620FEF759F81120FEF759F8D1
:1040E0000020FEF756F83420FEF753F80020FEF7C4
:1040F00050F85620FEF74DF80020FEF74AF87620DB
:10410000FEF747F80020FEF744F87720FEF741F865
:104110000020FEF73EF86620FEF73BF80020FEF791
:1041200038F88820FEF735F80020FEF732F899209D
:10413000FEF72FF80020FEF72CF8BB20FEF729F839
:104140000020FEF726F89920FEF723F80020FEF75E
:1041500020F86620FEF71DF80020FEF71AF855201B
:10416000FEF717F80020FEF714F85520FEF711F8B7
:104170000020FEF70EF84520FEF70BF80020FEF7B2
:1041800008F84320FEF705F80020FEF702F8442067
:10419000FDF7FFFF0020FDF7FCFFE720FDF7F6FF2E
:1041A0003220FDF7F6FF0020FDF7F3FF5520FDF765
:1041B000F0FF0020FDF7EDFF7620FDF7EAFF00207D
:1041C000FDF7E7FF6620FDF7E4FF0020FDF7E1FFC4
:1041D0006720FDF7DEFF0020FDF7DBFF6720FDF71E
:1041E000D8FF0020FDF7D5FF8720FDF7D2FF002084
:1041F000FDF7CFFF9920FDF7CCFF0020FDF7C9FFA9
:10420000BB20FDF7C6FF0020FDF7C3FF9920FDF797
:10421000C0FF0020FDF7BDFF7720FDF7BAFF0020AB
:10422000FDF7B7FF4420FDF7B4FF0020FDF7B1FF15
:104230005620FDF7AEFF0020FDF7ABFF2320FDF772
:10424000A8FF0020FDF7A5FF3320FDF7A2FF002007
:10425000FDF79FFF4520FDF79CFF0020FDF799FF2C
:10426000E820FDF793FF0020FDF793FF0020FDF706
:1042700090FF9920FDF78DFF0020FDF78AFF872032
:10428000FDF787FF0020FDF784FF8820FDF781FF01
:104290000020FDF77EFF7720FDF77BFF0020FDF774
:1042A00078FF6620FDF775FF0020FDF772FF88207C
:1042B000FDF76FFF0020FDF76CFFAA20FDF769FFF7
:1042C0000020FDF766FFBB20FDF763FF0020FDF730
:1042D00060FF9920FDF75DFF0020FDF75AFF662083
:1042E000FDF757FF0020FDF754FF5520FDF751FF64
:1042F0000020FDF74EFF5520FDF74BFF0020FDF796
:1043000048FF4420FDF745FF0020FDF742FF442011
:10431000FDF73FFF0020FDF73CFF5520FDF739FF7B
:104320000020FDF736FFE920FDF730FFAA20FDF75A
:1043300030FF0020FDF72DFF0020FDF72AFF0020B1
:10434000FDF727FF0020FDF721FFAA20FDF721FF41
:10435000CF20FDF71BFF0020FDF71BFF0020FDF71E
:1043600018FF0020FDF715FF0020FDF712FF0020C9
:10437000FDF70FFF0020FDF70CFF0020FDF709FF00
:104380000020FDF706FF0020FDF703FF0020FDF7EA
:1043900000FF0020FDF7FDFE0020FDF7FAFE0020E3
:1043A000FDF7F7FE0020FDF7F4FE0020FDF7F1FE1B
:1043B0000020FDF7EEFE0020FDF7EBFEF020FDF7FC
:1043C000E5FE0020FDF7E5FE5020FDF7E2FE0020AF
:1043D000FDF7DFFE0020FDF7DCFE0020FDF7D9FE33
:1043E000F320FDF7D3FE0020FDF7D3FEF920FDF703
:1043F000CDFE0620FDF7CDFE1020FDF7CAFE2920D8
:10440000FDF7C7FE0020FDF7C4FE3A20FDF7BEFE13
:104410005520FDF7BEFE1120FDF7B8FE642003F025
:10442000C6FB2920FDF7B2FE3520FDF7AFFE0020C8
:10443000FDF7AFFE5120FDF7A9FEFF20FDF7A9FE15
:104440005320FDF7A3FE2C20FDF7A3FE5520FDF71A
:104450009DFE8220FDF79DFE2C20FDF797FE02F0C9
:10446000E9B8FE48808845F2105188427ED1552136
:104470004FF47040FDF799FEAA214FF20100FDF7BD
:1044800094FE52214FF20200FDF78FFE08214FF2F9
:104490000300FDF78AFE01214FF20400FDF785FEBF
:1044A0000D214FF43040FDF780FE0D214BF201004D
:1044B000FDF77BFE0D214BF20200FDF776FE342165
:1044C0004FF43640FDF771FE34214BF20160FDF7E9
:1044D0006CFE34214BF20260FDF767FE0D214FF4B4
:1044E0003140FDF762FE0D214BF20110FDF75DFE3C
:1044F0000D214BF20210FDF758FE34214FF43740E6
:10450000FDF753FE34214BF20170FDF74EFE3421CE
:104510004BF20270FDF749FE00214FF43240FDF7E7
:1045200044FE00214BF20120FDF73FFE00214BF23B
:104530000220FDF73AFE24214FF43840FDF735FE06
:1045400024214BF60100FDF730FE24214BF602003A
:10455000FDF72BFE01214FF43F40FDF726FE0F2112
:104560004FF43340FDF721FE0F2100E0FEE34BF254
:104570000130FDF71AFE0F214BF20230FDF715FE58
:1045800034214FF43940FDF710FE34214BF6011071
:10459000FDF70BFE34214BF60210FDF706FE082155
:1045A0004FF43540FDF701FE08214BF20150FDF7B5
:1045B000FCFD08214BF20250FDF7F7FD03214FF4FB
:1045C0004240FDF7F2FD24214FF43A40FDF7EDFDA6
:1045D00024214BF60120FDF7E8FD24214BF60220B3
:1045E000FDF7E3FD00214FF43C40FDF7DEFD7821AF
:1045F0004BF60140FDF7D9FD00214BF60240FDF7D7
:10460000D4FD00214FF43D40FDF7CFFD78214BF65E
:104610000150FDF7CAFD00214BF60250FDF7C5FD24
:1046200000214FF43E40FDF7C0FD64214BF60160D0
:10463000FDF7BBFD00214FF45140FDF7B6FD3321DE
:104640004DF20110FDF7B1FD00214DF20210FDF712
:10465000ACFD34214DF20310FDF7A7FD00214DF212
:104660000410FDF7A2FD3A214DF20510FDF79DFD66
:1046700000214DF20610FDF798FD4A214DF207107A
:10468000FDF793FD00214DF20810FDF78EFD5C2132
:104690004DF20910FDF789FD00214DF20A10FDF7DA
:1046A00084FD81214DF20B10FDF77FFD00214DF2BD
:1046B0000C10FDF77AFDA6214DF20D10FDF775FDEA
:1046C00000214DF20E10FDF770FDE5214DF20F10A7
:1046D000FDF76BFD01214DF21010FDF766FD132172
:1046E0004DF21110FDF761FD01214DF21210FDF7A1
:1046F0005CFD54214DF21310FDF757FD01214DF2E1
:104700001410FDF752FD82214DF21510FDF74DFDFD
:1047100001214DF21610FDF748FDCA214DF2171088
:10472000FDF743FD02214DF21810FDF73EFD00217B
:104730004DF21910FDF739FD02214DF21A10FDF767
:1047400034FD01214DF21B10FDF72FFD02214DF22A
:104750001C10FDF72AFD34214DF21D10FDF725FD3B
:1047600002214DF21E10FDF720FD67214DF21F10B2
:10477000FDF71BFD02214DF22010FDF716FD8421EF
:104780004DF22110FDF711FD02214DF22210FDF72F
:104790000CFDA4214DF22310FDF707FD02214DF27F
:1047A0002410FDF702FDB7214DF22510FDF7FDFCA9
:1047B00002214DF22610FDF7F8FCCF214DF2271013
:1047C000FDF7F3FC02214DF22810FDF7EEFCDE218F
:1047D0004DF22910FDF7E9FC02214DF22A10FDF7F8
:1047E000E4FCF2214DF22B10FDF7DFFC02214DF22B
:1047F0002C10FDF7DAFCFE214DF22D10FDF7D5FC53
:1048000003214DF22E10FDF7D0FC10214DF22F1098
:10481000FDF7CBFC03214DF23010FDF7C6FC332130
:104820004DF23110FDF7C1FC03214DF23210FDF7BE
:10483000BCFC6D214DF23310FDF7B7FC00214FF4A5
:104840005240FDF7B2FC33214DF20120FDF7ADFCE3
:1048500000214DF20220FDF7A8FC01E0FC00002041
:1048600034214DF20320FDF7A0FC00214DF204207D
:10487000FDF79BFC3A214DF20520FDF796FC002147
:104880004DF20620FDF791FC4A214DF20720FDF77D
:104890008CFC00214DF20820FDF787FC5C214DF2D5
:1048A0000920FDF782FC00214DF20A20FDF77DFC76
:1048B00081214DF20B20FDF778FC00214DF20C20F8
:1048C000FDF773FCA6214DF20D20FDF76EFC0021D3
:1048D0004DF20E20FDF769FCE5214DF20F20FDF7AA
:1048E00064FC01214DF21020FDF75FFC13214DF215
:1048F0001120FDF75AFC01214DF21220FDF755FC65
:1049000054214DF21320FDF750FC01214DF21420EB
:10491000FDF74BFC82214DF21520FDF746FC0121ED
:104920004DF21620FDF741FCCA214DF21720FDF78C
:104930003CFC02214DF21820FDF737FC00214DF21E
:104940001920FDF732FC02214DF21A20FDF72DFC53
:1049500001214DF21B20FDF728FC02214DF21C2005
:10496000FDF723FC34214DF21D20FDF71EFC022132
:104970004DF21E20FDF719FC67214DF21F20FDF7B7
:1049800014FC02214DF22020FDF70FFC84214DF292
:104990002120FDF70AFC02214DF22220FDF705FC43
:1049A000A4214DF22320FDF700FC02214DF224202A
:1049B000FDF7FBFBB7214DF22520FDF7F6FB0221A9
:1049C0004DF22620FDF7F1FBCF214DF22720FDF718
:1049D000ECFB02214DF22820FDF7E7FBDE214DF232
:1049E0002920FDF7E2FB02214DF22A20FDF7DDFB35
:1049F000F2214DF22B20FDF7D8FB02214DF22C20A5
:104A0000FDF7D3FBFE214DF22D20FDF7CEFB032158
:104A10004DF22E20FDF7C9FB10214DF22F20FDF79E
:104A2000C4FB03214DF23020FDF7BFFB33214DF2D3
:104A30003120FDF7BAFB03214DF23220FDF7B5FB23
:104A40006D214DF23320FDF7B0FB00214FF45340B0
:104A5000FDF7ABFB33214DF20130FDF7A6FB002142
:104A60004DF20230FDF7A1FB34214DF20330FDF78A
:104A70009CFB00214DF20430FDF797FB3A214DF2EB
:104A80000530FDF792FB00214DF20630FDF78DFB5E
:104A90004A214DF20730FDF788FB00214DF2083026
:104AA000FDF783FB5C214DF20930FDF77EFB002111
:104AB0004DF20A30FDF779FB81214DF20B30FDF705
:104AC00074FB00214DF20C30FDF76FFBA6214DF277
:104AD0000D30FDF76AFB00214DF20E30FDF765FB4E
:104AE000E5214DF20F30FDF760FB01214DF2103052
:104AF000FDF75BFB13214DF21130FDF756FB012151
:104B00004DF21230FDF751FB54214DF21330FDF7F9
:104B10004CFB01214DF21430FDF747FB82214DF291
:104B20001530FDF742FB01214DF21630FDF73DFB3C
:104B3000CA214DF21730FDF738FB02214DF2183033
:104B4000FDF733FB00214DF21930FDF72EFB02215A
:104B50004DF21A30FDF729FB01214DF21B30FDF714
:104B600024FB02214DF21C30FDF71FFB34214DF2D6
:104B70001D30FDF71AFB02214DF21E30FDF715FB2B
:104B800067214DF21F30FDF710FB02214DF220305E
:104B9000FDF70BFB84214DF22130FDF706FB0221CE
:104BA0004DF22230FDF701FBA4214DF22330FDF739
:104BB000FCFA02214DF22430FDF7F7FAB7214DF24D
:104BC0002530FDF7F2FA02214DF22630FDF7EDFA1D
:104BD000CF214DF22730FDF7E8FA02214DF22830BF
:104BE000FDF7E3FADE214DF22930FDF7DEFA02216E
:104BF0004DF22A30FDF7D9FAF2214DF22B30FDF7B4
:104C0000D4FA02214DF22C30FDF7CFFAFE214DF2FD
:104C10002D30FDF7CAFA03214DF22E30FDF7C5FA0B
:104C200010214DF22F30FDF7C0FA03214DF2303044
:104C3000FDF7BBFA33214DF23130FDF7B6FA03210F
:104C40004DF23230FDF7B1FA6D214DF23330FDF700
:104C5000ACFA00214FF45440FDF7A7FA33214DF28E
:104C60000140FDF7A2FA00214DF20240FDF79DFA46
:104C700034214DF20340FDF798FA00214DF2044033
:104C8000FDF793FA3A214DF20540FDF78EFA002127
:104C90004DF20640FDF789FA4A214DF20740FDF733
:104CA00084FA00214DF20840FDF77FFA5C214DF2B5
:104CB0000940FDF77AFA00214DF20A40FDF775FA36
:104CC00081214DF20B40FDF770FA00214DF20C40AE
:104CD000FDF76BFAA6214DF20D40FDF766FA0021B3
:104CE0004DF20E40FDF761FAE5214DF20F40FDF760
:104CF0005CFA01214DF21040FDF757FA13214DF2F5
:104D00001140FDF752FA01214DF21240FDF74DFA24
:104D100054214DF21340FDF748FA01214DF21440A1
:104D2000FDF743FA82214DF21540FDF73EFA0121CD
:104D30004DF21640FDF739FACA214DF21740FDF742
:104D400034FA02214DF21840FDF72FFA00214DF2FE
:104D50001940FDF72AFA02214DF21A40FDF725FA13
:104D600001214DF21B40FDF720FA00E004E302218F
:104D70004DF21C40FDF719FA34214DF21D40FDF7AC
:104D800014FA02214DF21E40FDF70FFA67214DF291
:104D90001F40FDF70AFA02214DF22040FDF705FA07
:104DA00084214DF22140FDF700FA02214DF222400C
:104DB000FDF7FBF9A4214DF22340FDF7F6F902219E
:104DC0004DF22440FDF7F1F9B7214DF22540FDF7F2
:104DD000ECF902214DF22640FDF7E7F9CF214DF223
:104DE0002740FDF7E2F902214DF22840FDF7DDF9F9
:104DF000DE214DF22940FDF7D8F902214DF22A407B
:104E0000FDF7D3F9F2214DF22B40FDF7CEF9022147
:104E10004DF22C40FDF7C9F9FE214DF22D40FDF772
:104E2000C4F903214DF22E40FDF7BFF910214DF2D8
:104E30002F40FDF7BAF903214DF23040FDF7B5F9E7
:104E400033214DF23140FDF7B0F903214DF23240EC
:104E5000FDF7ABF96D214DF23340FDF7A6F90021C6
:104E60004FF45540FDF7A1F933214DF20150FDF704
:104E70009CF900214DF20250FDF797F934214DF2D3
:104E80000350FDF792F900214DF20450FDF78DF922
:104E90003A214DF20550FDF788F900214DF20650F8
:104EA000FDF783F94A214DF20750FDF77EF9002105
:104EB0004DF20850FDF779F95C214DF20950FDF7EC
:104EC00074F900214DF20A50FDF76FF981214DF27E
:104ED0000B50FDF76AF900214DF20C50FDF765F912
:104EE000A6214DF20D50FDF760F900214DF20E5054
:104EF000FDF75BF9E5214DF20F50FDF756F9012161
:104F00004DF21050FDF751F913214DF21150FDF7FC
:104F10004CF901214DF21250FDF747F954214DF2A1
:104F20001350FDF742F901214DF21450FDF73DF900
:104F300082214DF21550FDF738F901214DF216503E
:104F4000FDF733F9CA214DF21750FDF72EF9022172
:104F50004DF21850FDF729F900214DF21950FDF7D7
:104F600024F902214DF21A50FDF71FF901214DF2EB
:104F70001B50FDF71AF902214DF21C50FDF715F9EF
:104F800034214DF21D50FDF710F902214DF21E5053
:104F9000FDF70BF967214DF21F50FDF706F90221CD
:104FA0004DF22050FDF701F984214DF22150FDF71B
:104FB000FCF802214DF22250FDF7F7F8A4214DF242
:104FC0002350FDF7F2F802214DF22450FDF7EDF8E1
:104FD000B7214DF22550FDF7E8F802214DF2265099
:104FE000FDF7E3F8CF214DF22750FDF7DEF802215F
:104FF0004DF22850FDF7D9F8DE214DF22950FDF78A
:10500000D4F802214DF22A50FDF7CFF8F2214DF2EB
:105010002B50FDF7CAF802214DF22C50FDF7C5F8D0
:10502000FE214DF22D50FDF7C0F803214DF22E5018
:10503000FDF7BBF810214DF22F50FDF7B6F8032114
:105040004DF23050FDF7B1F833214DF23150FDF7FC
:10505000ACF803214DF23250FDF7A7F86D214DF267
:105060003350FDF7A2F800214FF45640FDF79DF8AC
:1050700033214DF20160FDF798F800214DF20260F6
:10508000FDF793F834214DF20360FDF78EF800210F
:105090004DF20460FDF789F83A214DF20560FDF705
:1050A00084F800214DF20660FDF77FF84A214DF2A9
:1050B0000760FDF77AF800214DF20860FDF775F8FA
:1050C0005C214DF20960FDF770F800214DF20A6095
:1050D000FDF76BF881214DF20B60FDF766F80021BA
:1050E0004DF20C60FDF761F8A6214DF20D60FDF761
:1050F0005CF800214DF20E60FDF757F8E5214DF206
:105100000F60FDF752F801214DF21060FDF74DF8E8
:1051100013214DF21160FDF748F801214DF21260A4
:10512000FDF743F854214DF21360FDF73EF80121DD
:105130004DF21460FDF739F882214DF21560FDF74C
:1051400034F801214DF21660FDF72FF8CA214DF217
:105150001760FDF72AF802214DF21860FDF725F8D7
:1051600000214DF21960FDF720F802214DF21A607E
:10517000FDF71BF801214DF21B60FDF716F8022127
:105180004DF21C60FDF711F834214DF21D60FDF762
:105190000CF802214DF21E60FDF707F867214DF271
:1051A0001F60FDF702F802214DF22060FCF7FDFFC1
:1051B00084214DF22160FCF7F8FF02214DF22260BC
:1051C000FCF7F3FFA4214DF22360FCF7EEFF022170
:1051D0004DF22460FCF7E9FFB7214DF22560FCF7A2
:1051E000E4FF02214DF22660FCF7DFFFCF214DF2F4
:1051F0002760FCF7DAFF02214DF22860FCF7D5FFAB
:10520000DE214DF22960FCF7D0FF02214DF22A6029
:10521000FCF7CBFFF2214DF22B60FCF7C6FF022119
:105220004DF22C60FCF7C1FFFE214DF22D60FCF722
:10523000BCFF03214DF22E60FCF7B7FF10214DF2A9
:105240002F60FCF7B2FF03214DF23060FCF7ADFF99
:1052500033214DF23160FCF7A8FF03214DF232609B
:10526000FCF7A3FF6D214DF23360FCF79EFF552143
:105270004FF47040FCF799FFAA214FF20100FCF7B0
:1052800094FF52214FF20200FCF78FFF08214FF2EA
:105290000300FCF78AFF00214FF20400FCF785FFB2
:1052A000CC214FF43140FCF780FF00214BF201107C
:1052B000FCF77BFF05214FF43640FCF776FF7021A9
:1052C0004FF43740FCF771FF70214BF20170FCF78F
:1052D0006CFF01214FF43840FCF767FF03214BF6C8
:1052E0000100FCF762FF03214BF60200FCF75DFFB3
:1052F00003214BF60300FCF758FF02214FF43C401A
:10530000FCF753FF00214BF60140FCF74EFF002154
:105310004BF60240FCF749FFD0214FF44940FCF71F
:1053200044FF02214CF60110FCF73FFF50214CF6E0
:105330000210FCF73AFF50214CF60310FCF735FF42
:1053400050214CF60410FCF730FF00214FF454506C
:10535000FCF72BFF55214FF46850FCF726FF4FF464
:105360008850FCF713FF782002F0FDFB4FF4245027
:10537000FCF70CFF01F05EB9FE48808849F2253148
:1053800088427DD147F6F001E520FCF70EFF4FF48F
:1053900080710120FCF709FF4FF4E0610220FCF767
:1053A00004FF41F230010320FCF7FFFE002104203E
:1053B000FCF7FBFE40F202210820FCF7F6FE00217C
:1053C0000920FCF7F2FE00210A20FCF7EEFE002186
:1053D0000C20FCF7EAFE00210D20FCF7E6FE002180
:1053E0000F20FCF7E2FE00211020FCF7DEFE072173
:1053F0001120FCF7DAFE00211220FCF7D6FE002176
:105400001320FCF7D2FE00210720FCF7CEFE41F26C
:1054100090611020FCF7C9FE40F227211120FCF713
:10542000C4FE9D211220FCF7C0FE4FF4C85113208A
:10543000FCF7BBFE25212920FCF7B7FE0D212B2010
:10544000FCF7B3FE07213020FCF7AFFE40F203313A
:105450003120FCF7AAFE03213220FCF7A6FE40F221
:1054600006213520FCF7A1FE08213620FCF79DFE21
:1054700040F206413720FCF798FE4FF4417100E0FE
:1054800058E03820FCF791FE07213920FCF78DFE0B
:1054900040F202613C20FCF788FE08213D20FCF729
:1054A00084FE00215020FCF780FEEF215120FCF704
:1054B0007CFE00215220FCF778FE40F23F11532081
:1054C000FCF773FE4FF427416020FCF76EFE0121CC
:1054D0006120FCF76AFE00216A20FCF766FE0021CD
:1054E0008020FCF762FE00218120FCF75EFE002197
:1054F0008220FCF75AFE00218320FCF756FE002193
:105500008420FCF752FE00218520FCF74EFE10217E
:105510009020FCF74AFE4FF4C0619220FCF745FE54
:1055200040F233110720FCF740FE22210020FCF757
:105530003CFE1FE78F48808849F2283188427DD1A0
:1055400041F28F01EC20FCF730FE41F23421EF20D4
:10555000FCF72BFE4FF480710120FCF726FE4FF480
:10556000E0610220FCF721FE41F230010320FCF74C
:105570001CFE00210420FCF718FE40F20221082046
:10558000FCF713FE00210920FCF70FFE00210A2082
:10559000FCF70BFE01210C20FCF707FE00210D207B
:1055A000FCF703FE00210F20FCF7FFFD0021102077
:1055B000FCF7FBFD07211120FCF7F7FD002112206D
:1055C000FCF7F3FD00211320FCF7EFFD012107207C
:1055D000FCF7EBFD322002F0EAFA41F29041102094
:1055E000FCF7E3FD40F227211120FCF7DEFD32201D
:1055F00002F0DDFA8A211220FCF7D7FD322002F0FA
:10560000D6FA4FF4D0511320FCF7CFFD0621292004
:10561000FCF7CBFD0D212B20FCF7C7FD322002F05B
:10562000C6FA00212020FCF7C0FD00212120FCF754
:10563000BCFD322002F0BBFA002100E075E0302012
:10564000FCF7B3FD40F204613120FCF7AEFD40F2FF
:1056500005313220FCF7A9FD00213520FCF7A5FD1E
:1056600040F609413620FCF7A0FD4FF401713720C8
:10567000FCF79BFD40F201313820FCF796FD40F22B
:1056800007713920FCF791FD00213C20FCF78DFDCE
:1056900040F60A213D20FCF788FD322002F087FA0F
:1056A00000215020FCF781FDEF215120FCF77DFD0A
:1056B00000215220FCF779FD40F23F115320FCF706
:1056C00074FD4FF427416020FCF76FFD012161203C
:1056D000FCF76BFD00216A20FCF767FD00218020AC
:1056E000FCF763FD00218120FCF75FFD0021822093
:1056F000FCF75BFD00218320FCF757FD002184208F
:10570000FCF753FD00218520FCF74FFD1021902070
:10571000FCF74BFD4FF4C0619220FCF746FD40F2D0
:1057200033110720FCF741FD24E61248808849F236
:10573000203188427ED100210846FCF736FD4FF427
:1057400080710120FCF731FD4FF4E0610220FCF78D
:105750002CFD41F230010320FCF727FD002104203D
:10576000FCF723FD40F202210820FCF71EFD00217A
:10577000092001E0FC000020FCF717FD00210A20B1
:10578000FCF713FD01210C20FCF70FFD00210D207B
:10579000FCF70BFD00210F20FCF707FD322002F083
:1057A00006FA40F201110720FCF7FFFC322002F05C
:1057B000FEF94FF486511020FCF7F7FC0721112069
:1057C000FCF7F3FC4FF488711220FCF7EEFC4FF469
:1057D00030611320FCF7E9FC00212920FCF7E5FCEF
:1057E00044F210012B20FCF7E0FC00215020FCF7D4
:1057F000DCFCEF215120FCF7D8FC00215220FCF703
:10580000D4FC40F23F115320FCF7CFFC4FF41C5165
:105810006020FCF7CAFC01216120FCF7C6FC0021D6
:105820006A20FCF7C2FC00218020FCF7BEFC0021AE
:10583000812000E030E0FCF7B8FC00218220FCF77A
:10584000B4FC00218320FCF7B0FC00218420FCF78D
:10585000ACFC00218520FCF7A8FC10219020FCF76F
:10586000A4FC00219220FCF7A0FC01219320FCF76E
:105870009CFC4FF488719520FCF797FC0021972041
:10588000FCF793FC00219820FCF78FFC40F2731189
:105890000720FCF78AFC6DE5FE48808849F231312B
:1058A00088427DD141F21401E720FCF77EFC4FF4E1
:1058B00080710120FCF779FC4FF400710220FCF7A5
:1058C00074FC41F238010320FCF76FFC40F2022126
:1058D0000820FCF76AFC00210920FCF766FC002187
:1058E0000A20FCF762FC00210C20FCF75EFC002182
:1058F0000D20FCF75AFC00210F20FCF756FC00217C
:105900001020FCF752FC07211120FCF74EFC00216F
:105910001220FCF74AFC00211320FCF746FCC820AB
:1059200002F045F941F290611020FCF73EFC40F294
:1059300027211120FCF739FC322002F038F90C2124
:105940001220FCF732FC322002F031F94FF40061F2
:105950001320FCF72AFC11212920FCF726FC0B213F
:105960002B20FCF722FC322002F021F9002120201C
:10597000FCF71BFC40F23F112120FCF716FC002134
:105980003020FCF712FC4FF483713120FCF70DFC42
:1059900000213220FCF709FC4FF40171352000E0B2
:1059A00064E0FCF702FC41F20A613620FCF7FDFBE3
:1059B00040F207713720FCF7F8FB4FF48371382071
:1059C000FCF7F3FB40F207713920FCF7EEFB40F2E5
:1059D00002413C20FCF7E9FB40F60F413D20FCF77B
:1059E000E4FB00215020FCF7E0FBEF215120FCF705
:1059F000DCFB00215220FCF7D8FB40F23F11532082
:105A0000FCF7D3FB4FF41C516020FCF7CEFB0121C7
:105A10006120FCF7CAFB00216A20FCF7C6FB0021CD
:105A20008020FCF7C2FB00218120FCF7BEFB002197
:105A30008220FCF7BAFB00218320FCF7B6FB002193
:105A40008420FCF7B2FB00218520FCF7AEFB10217F
:105A50009020FCF7AAFB4FF4C0619220FCF7A5FB55
:105A600040F233110720FCF7A0FB83E489488088CB
:105A700045F2084188427DD14FF480710120FCF746
:105A800094FB4FF4E0610220FCF78FFB41F2300100
:105A90000320FCF78AFB00210420FCF786FB40F280
:105AA00007210820FCF781FB00210920FCF77DFB82
:105AB00000210A20FCF779FB00210C20FCF775FB84
:105AC00000210D20FCF771FB00210F20FCF76DFB7E
:105AD000142002F06CF841F2B0611020FCF765FB75
